:04000000FEEF3FF0E0
:040008005BEF3CF07E
:02001800FF00E7
:107800001200D29A120001C030F002C031F0120012
:1078100001C02AF002C02BF0120001C02EF002C0FD
:107820002FF0120001C02CF002C02DF01200600EEB
:107830003901D96F000EDB6F000EDD6F080EDF6FB0
:10784000000EDE6F120001EC3CF06DEC3CF095ECAC
:107850003CF017EC3CF0C7EC3CF096EC3DF012002D
:10786000016E3901A3A937EF3CF039EF3CF031EF5D
:107870003CF0600007F0EAFD1200326A316A306ABB
:10788000080ED56E000ED66E000ED76E000EF86E86
:10789000000137EF3DF002D858EF3CF00500FA6EDA
:1078A0003050FD6E3150FE6EF850FF6EFA501200EF
:1078B0003901A59D1200390195AD61EF3CF063EFF0
:1078C0003CF06CEF3CF0A5AD68EF3CF06AEF3CF0AB
:1078D0006CEF3CF04BEC3CF01100000E3901C06F36
:1078E000000EC16F000EC26F000EC36F000EC46F9A
:1078F000000EC56F000EC66F000EC76F1200000E9F
:10790000016E3901A3A987EF3CF089EF3CF093EFBA
:107910003CF03D01F2AB8FEF3CF091EF3CF093EF88
:107920003CF0010E016E01501200000EBA6E000E06
:10793000BB6E000EBC6EFE0EC26EEF0EC36EBF0EAF
:10794000C46E3F0E3A01606FE70E506FFE0E406F3F
:10795000000E816F000E516F000E416F000E616FBF
:10796000000E426F000E526F000E626F4369536942
:107970006369446954696469080E846F0B0EED6F86
:10798000330E0C6F130E166F170EE76F1200000EFA
:107990003D01EC6F000EED6F000EEE6F000EEF6F0D
:1079A000000EF06F000EF16FB00EF26F800EF36FED
:1079B000000EF46F820EF56F060EF66F000EF76F75
:1079C000000EF86F000EF96F000EFA6F000E016ED8
:1079D000000E026E0DEC3CF0000E016E000E026E09
:1079E00012EC3CF0000E016E000E026E08EC3CF052
:1079F000000E326E1200076E0750056E066AD890B0
:107A000005360636D89005360636D8900536063641
:107A100005C00CF006C00DF0000E0DBEFF0E0E6E80
:107A20000F6E01C005F0050E066ED8900532062EC9
:107A300015EF3DF005500C240C6E000E0D200D6E60
:107A4000000E0E200E6E000E0F200F6E0CC008F000
:107A50000DC009F00EC00AF00FC00BF008C001F015
:107A600009C002F00AC003F00BC004F0120023ECBE
:107A70003CF01C0E146E000E156EA2EC3EF00009D8
:107A8000D8B445EF3DF047EF3DF039EF3DF0BAB0E7
:107A90004CEF3DF04FEF3DF0010E50EF3DF0000E8A
:107AA000FF0A176EBA501718FE0B1718BA6E000EA1
:107AB0001B6E000E1A6E6CEF3DF07FEC3CF000097F
:107AC000D8B465EF3DF067EF3DF05DEF3DF01C0E83
:107AD00030EC3CF01A4A1B2A2150176E186A050E2A
:107AE0001726000E182217501A5C1B50800A196EB8
:107AF0001850800A1958D8A080EF3DF082EF3DF071
:107B00005DEF3DF0BAB087EF3DF08AEF3DF0010E3A
:107B10008BEF3DF0000EFF0A176EBA501718FE0BE0
:107B20001718BA6E39EF3DF0FEEF3FF0800E8F6E02
:107B30008E50E00B800AD8A4A0EF3DF0A2EF3DF0FC
:107B400098EF3DF0000E916E000E3701006F000EB1
:107B5000BA6F000EBB6F000EB86F000EB96F000E4B
:107B6000BE6F000EBF6F000EBC6F000EBD6F000E2B
:107B7000A26F000EA36F000EA06F000EA16F000E8B
:107B8000A66F000EA76F000EA46F000EA56F000E6B
:107B9000AA6F000EAB6F000EA86F000EA96F000E4B
:107BA000AE6F000EAF6F000EAC6F000EAD6F000E2B
:107BB000B26F000EB36F000EB06F000EB16F000E0B
:107BC000B66F000EB76F000EB46F000EB56F3F0EAC
:107BD000036FBF0E046F070E056F000E016E780E67
:107BE000026E03EC3CF03901A59D958D000E8F6E61
:107BF0006F0038FE03F0E00E0316D8A402EF3EF04B
:107C000004EF3EF0F8EF3DF01200096E000E106E2A
:107C1000000E116E000E126E000E136E0350030B59
:107C20000E6E0338E842070B0F6E0250056E066AAF
:107C3000D89005360636D89005360636D8900536E3
:107C4000063605C010F006C011F0000E11BEFF0E82
:107C5000126E136E0F501024106E000E1120116E54
:107C6000000E1220126E000E1320136E10C005F0CD
:107C700011C006F012C007F013C008F0020ED89031
:107C80000536063607360836E82E3FEF3EF005C0CB
:107C900010F006C011F007C012F008C013F00E502B
:107CA0001024106E000E1120116E000E1220126EA4
:107CB000000E1320136E10C006F011C007F012C0A2
:107CC00008F0056A05C010F006C011F007C012F0F8
:107CD00008C013F009501024106E000E1120116E10
:107CE000000E1220126E000E1320136E10C006F04C
:107CF00011C007F012C008F0056A05C010F006C0F8
:107D000011F007C012F008C013F001501024106EDB
:107D1000000E1120116E000E1220126E000E1320A4
:107D2000136E10C00AF011C00BF012C00CF013C09B
:107D30000DF00AC001F00BC002F00CC003F00DC042
:107D400004F01200000E166E80AEA9EF3EF0ABEF0D
:107D50003EF050EF3FF082A6B0EF3EF0B2EF3EF0C3
:107D6000DAEF3EF0600053F0D9FF600057F0DAFF21
:107D7000020EDF6E6F0010FE01F06F0004FE02F0D5
:107D80006F0008FE03F0835005EC3EF020EE01F09A
:107D90001450D9261550DA22600007F0DEFF60008B
:107DA0000BF0DEFF60000FF0DEFF600013F0DEFF7F
:107DB000FAEF3EF0600053F0D9FF600057F0DAFFB1
:107DC000010EDF6E6F0008FE01F08150FBEC3CF00D
:107DD00020EE01F01450D9261550DA22600007F089
:107DE000DEFF60000BF0DEFF60000FF0DEFF6000E2
:107DF00013F0DEFF20EE05F01450D9261550DA22DC
:107E00006F0017FEDFFF20EE06F01450D926155044
:107E1000DA226F001BFEDFFF20EE07F01450D92698
:107E20001550DA226F001FFEDFFF20EE08F014501D
:107E3000D9261550DA226F0023FEDFFF20EE09F06D
:107E40001450D9261550DA226F0027FEDFFF20EEEE
:107E50000AF01450D9261550DA226F002BFEDFFFEE
:107E600020EE0BF01450D9261550DA226F002FFEA9
:107E7000DFFF20EE0CF01450D9261550DA226F00E7
:107E800033FEDFFF20EE0DF01450D9261550DA2214
:107E90006F0037FEDFFF809E010E166EFCEF3FF095
:107EA0003701F0AF56EF3FF058EF3FF0FCEF3FF0F7
:107EB000F2A75DEF3FF05FEF3FF087EF3FF060002C
:107EC00053F0D9FF600057F0DAFF020EDF6E6D004D
:107ED000D0FF01F06D00C4FF02F06D00C8FF03F099
:107EE000F35105EC3EF020EE01F01450D926155068
:107EF000DA22600007F0DEFF60000BF0DEFF6000BA
:107F00000FF0DEFF600013F0DEFFA7EF3FF0600030
:107F100053F0D9FF600057F0DAFF010EDF6E6D00FD
:107F2000C8FF01F0F151FBEC3CF020EE01F01450E1
:107F3000D9261550DA22600007F0DEFF60000BF052
:107F4000DEFF60000FF0DEFF600013F0DEFF20EECA
:107F500005F01450D9261550DA226D00D7FFDFFF47
:107F600020EE06F01450D9261550DA226D00DBFF02
:107F7000DFFF20EE07F01450D9261550DA226D00ED
:107F8000DFFFDFFF20EE08F01450D9261550DA226B
:107F90006D00E3FFDFFF20EE09F01450D9261550E5
:107FA000DA226D00E7FFDFFF20EE0AF01450D92639
:107FB0001550DA226D00EBFFDFFF20EE0BF01450BE
:107FC000D9261550DA226D00EFFFDFFF20EE0CF00E
:107FD0001450D9261550DA226D00F3FFDFFF20EE92
:107FE0000DF01450D9261550DA226D00F7FFDFFF8F
:107FF0003701F09F4CEF3FF0165012003DEF3CF080
:020000040020DA
:10000000FF0FFF0FFF0FFF0FFF0FFF0FFF0FFF0F80
:020000040030CA
:0A0000008CFFF7FF9FFFFFFFFFFFDB
:00000001FF
