:04000000FEEF3FF0E0
:0400080053EF31F091
:02001800FF00E7
:106200001200D29A120001C0A9F002C0AAF0120036
:1062100001C0CBF002C0CCF0120001C0CFF002C030
:10622000D0F0120001C0CDF002C0CEF01200026E1C
:10623000025035EC31F01200600E3901D96F000EBA
:10624000DB6F000EDD6F080EDF6F000EDE6F1200D9
:1062500001EC31F065EC31F081EC32F01CEC31F006
:10626000E6EC32F004EC34F01200016E3901A3A91F
:106270003CEF31F03EEF31F036EF31F0600007F0E7
:10628000EAFD120002D850EF31F005000001FA6E6D
:10629000A951FD6EAA51FE6EF850FF6EFA50120021
:1062A0003901A59D1200390195AD59EF31F05BEF31
:1062B00031F064EF31F0A5AD60EF31F062EF31F015
:1062C00064EF31F042EC31F01100000E3901C06F83
:1062D000000EC16F000EC26F000EC36F000EC46FC0
:1062E000000EC56F000EC66F000EC76F120000EEE5
:1062F000A1F02A0EEE6AE806FDE15F6A080ED56E8F
:10630000000ED66E000ED76E000EF86E0001F0EF94
:1063100034F0750E00017B6F000E7C6F000E596E1D
:10632000000E5A6E73C05BF074C05CF07B0E5D6E45
:10633000000E5E6EB3EC32F01200BF0E036EFF0E65
:10634000046E01C005F002C006F00350052604509B
:10635000062206500AE11A0E055CD8A0B2EF31F011
:10636000B5EF31F0010EB6EF31F0000E016E026AAA
:1063700012009F0E036EFF0E046E01C005F002C0F6
:1063800006F0035005260450062206500AE11A0EB4
:10639000055CD8A0CEEF31F0D1EF31F0010ED2EF95
:1063A00031F0000E016E026A120001C003F002C05B
:1063B00004F0DDEF31F0014A022A600007F0D9FF56
:1063C00060000BF0DAFFDF50D8A4E9EF31F0EBEF1B
:1063D00031F0DBEF31F00350015C016E04500258E4
:1063E000026E12009F0E036EFF0E046E200E01104F
:1063F000056E000E0210066E03500526045006229C
:1064000006500AE11A0E055CD8A009EF32F00CEF35
:1064100032F0010E0DEF32F0000E016E026A120032
:1064200014BE1DEF32F0145006E11304D8B01BEF78
:1064300032F01DEF32F02BEF32F013C015F014C024
:1064400016F0151E161E154A162A15C013F016C092
:1064500014F02FEF32F013C013F014C014F0120038
:10646000000E126E000E116E41EF32F010C003F0FC
:10647000046A0EC005F00FC006F056EC33F0114A66
:10648000122A11500C24D96E12500D20DA6EDF50F2
:10649000106E1050D8A44FEF32F051EF32F036EFBB
:1064A00032F012009F0E096EFF0E0A6E07C00BF04D
:1064B00008C00CF009500B260A500C220C500AE1BF
:1064C0001A0E0B5CD8A067EF32F06AEF32F0010EC3
:1064D0006BEF32F0000E0D6E0E6A0D500E10D8B438
:1064E00074EF32F076EF32F07CEF32F05F0E07148B
:1064F000076E086A80EF32F007C007F008C008F0A6
:106500001200000EBA6E000EBB6E000EBC6EFE0EC8
:10651000C26EEF0EC36EBF0EC46E3F0E3A01606FC7
:10652000E70E506FFE0E406F000E816F000E516F30
:10653000000E416F000E616F000E426F000E526F31
:10654000000E626F43695369636944695469646901
:10655000080E846F0B0EED6F330E0C6F130E166F5B
:10656000170EE76F12005BC071F05CC072F0000E96
:106570000001A26F000EA16FD1EF32F059C045F0BB
:106580005AC046F0710E476E000E486E5DC049F06D
:106590005EC04AF09DEC3CF045500001A1274650FA
:1065A000A2236000C7F1F6FF6000CBF1F7FF0800FF
:1065B000F5500009D8A4DFEF32F0E1EF32F0BEEF82
:1065C00032F0A1C059F0A2C05AF01200000E3D01F5
:1065D000EC6F000EED6F000EEE6F000EEF6F000E11
:1065E000F06F000EF16FB00EF26F800EF36F000EC1
:1065F000F46F400EF56F030EF66F000EF76F000E8E
:10660000F86F000EF96F000EFA6F000E016E000EAB
:10661000026E0DEC31F0000E016E000E026E12ECF7
:1066200031F0000E016E000E026E08EC31F0000E2B
:106630005F6E1200076E0750056E066AD890053629
:106640000636D89005360636D8900536063605C08B
:106650000CF006C00DF0000E0DBEFF0E0E6E0F6E9C
:1066600001C005F0050E066ED8900532062E34EFF7
:1066700033F005500C240C6E000E0D200D6E000E34
:106680000E200E6E000E0F200F6E0CC008F00DC015
:1066900009F00EC00AF00FC00BF008C001F009C0ED
:1066A00002F00AC003F00BC004F0120005500610FF
:1066B000D8B45DEF33F05FEF33F068EF33F005509F
:1066C0000610D8A466EF33F068EF33F06DEF33F0C7
:1066D000035017EC31F0A0EF33F020EE04F005503A
:1066E000D9260650DA22DE50DE10D8B47AEF33F025
:1066F0007CEF33F097EF33F020EE04F00550D9260D
:106700000650DA2210EE02F00550E1260650E22291
:10671000DE50E65CE650800A0B6EDE50800A0B58B5
:10672000D8B095EF33F097EF33F0A0EF33F020EED1
:1067300002F00550D9260650DA22DE2A000EDD22AC
:1067400012000001A7A1A7EF33F0A9EF33F0B3EFD8
:1067500033F015C00CF016C00DF013C00EF014C0CD
:106760000FF030EC32F018BEB8EF33F0BAEF33F080
:10677000C0EF33F017C01CF018C01DF0C4EF33F0A9
:10678000000E1D6E000E1C6E000E1B6E000E1A6EAB
:10679000D6EF33F0000E046E200E036E13C005F02A
:1067A00014C006F056EC33F01A4A1B2A1C501A5C2F
:1067B0001B50800A196E1D50800A1958D8A0E3EFAB
:1067C00033F0E5EF33F0CAEF33F00001A7B1EBEFA0
:1067D00033F0EDEF33F0F7EF33F015C00CF016C0E7
:1067E0000DF013C00EF014C00FF030EC32F015C0F5
:1067F00001F016C002F0D5EC31F01C500124136EEC
:106800001D500220146E1200800E8F6E8E50E00B11
:10681000800AD8A40EEF34F010EF34F006EF34F015
:10682000000E916E000E3701006F000EBA6F000E61
:10683000BB6F000EB86F000EB96F000EBE6F000E7A
:10684000BF6F000EBC6F000EBD6F000EA26F000E7A
:10685000A36F000EA06F000EA16F000EA66F000EBA
:10686000A76F000EA46F000EA56F000EAA6F000E9A
:10687000AB6F000EA86F000EA96F000EAE6F000E7A
:10688000AF6F000EAC6F000EAD6F000EB26F000E5A
:10689000B36F000EB06F000EB16F000EB66F000E3A
:1068A000B76F000EB46F000EB56F1F0E036F980E1A
:1068B000046F010E056F000E016E620E026E03EC96
:1068C00031F03901A59D958D000E8F6E6F0038FE59
:1068D00003F0E00E0316D8A470EF34F072EF34F03A
:1068E00066EF34F0120001C008F002C009F003C0E6
:1068F0000AF004C00BF00506D8A00606052806E13C
:106900000628D8A486EF34F088EF34F095EF34F001
:10691000000E026E000E016EEFEF34F0084A092AF5
:106920000A4A0B2A0506D8A00606600023F0F6FFE7
:10693000600027F0F7FF0800F5500009D8B4A3EF76
:1069400034F0A5EF34F0D8EF34F060002BF0F6FF10
:1069500060002FF0F7FF0800F5500009D8B4B3EF3E
:1069600034F0B5EF34F0D8EF34F005500610D8B459
:10697000BCEF34F0BEEF34F0D8EF34F0600023F019
:10698000F6FF600027F0F7FF08006F00D4FF07F064
:1069900060002BF0F6FF60002FF0F7FF0800F550C5
:1069A0000718D8B4D6EF34F0D8EF34F08EEF34F0C7
:1069B000600023F0F6FF600027F0F7FF08006F008B
:1069C000D4FF07F060002BF0F6FF60002FF0F7FF18
:1069D0000800F550075C016E026AD8A0020612009A
:1069E00028EC31F0010E0001856F660E866F060EF1
:1069F000876F000E886F000E896F080E8A6F000E79
:106A00008B6F930E146E000E156E61EC38F000095A
:106A1000D8B40DEF35F00FEF35F065EF35F0FB0E24
:106A20000001736F7E0E746F89EC31F094C07DF0BD
:106A300095C07EF090EC37F03D0E0001736F7F0E35
:106A4000746F89EC31F0BC0E0001736F7F0E746FB0
:106A500094C075F095C076F096C077F097C078F046
:106A600089EC31F0000E0001846F54EF35F0980E80
:106A7000736F7F0E746F84C075F0766B8451816F75
:106A8000826B060E8127000E8223930E8125D96E1C
:106A9000000E8221DA6EDF50836F8351776F786B3F
:106AA00089EC31F00001842B9851845DD8A05BEF14
:106AB00035F05DEF35F037EF35F03D0E736F7F0E3B
:106AC000746F89EC31F06CEF35F0290E0001736FB3
:106AD0007F0E746F89EC31F0090E0001826F1E0E7B
:106AE000816FE40EE82EFED7812FFCD7822FFAD7D4
:106AF00000F001EF35F0FEEF3FF0096E000E106E72
:106B0000000E116E000E126E000E136E0350030B7A
:106B10000E6E0338E842070B0F6E0250056E066AD0
:106B2000D89005360636D89005360636D890053604
:106B3000063605C010F006C011F0000E11BEFF0EA3
:106B4000126E136E0F501024106E000E1120116E75
:106B5000000E1220126E000E1320136E10C005F0EE
:106B600011C006F012C007F013C008F0020ED89052
:106B70000536063607360836E82EB7EF35F005C07D
:106B800010F006C011F007C012F008C013F00E504C
:106B90001024106E000E1120116E000E1220126EC5
:106BA000000E1320136E10C006F011C007F012C0C3
:106BB00008F0056A05C010F006C011F007C012F019
:106BC00008C013F009501024106E000E1120116E31
:106BD000000E1220126E000E1320136E10C006F06D
:106BE00011C007F012C008F0056A05C010F006C019
:106BF00011F007C012F008C013F001501024106EFD
:106C0000000E1120116E000E1220126E000E1320C5
:106C1000136E10C00AF011C00BF012C00CF013C0BC
:106C20000DF00AC001F00BC002F00CC003F00DC063
:106C300004F01200000E126E08BE23EF36F021EFB2
:106C400036F035EF36F0081E071E061E051E041E20
:106C5000031E021E016C000E0222032204220522E2
:106C6000062207220822010E126E10BE3CEF36F0FB
:106C70003AEF36F04CEF36F0101E0F1E0E1E0D1EB2
:106C80000C1E0B1E0A1E096C000E0A220B220C227F
:106C90000D220E220F22102209500A100B100C1088
:106CA0000D100E100F101010D8B459EF36F05BEF26
:106CB00036F0A3EF36F0010E116E69EF36F0D89082
:106CC00009360A360B360C360D360E360F361036B0
:106CD000112A10AE6EEF36F070EF36F05FEF36F03F
:106CE0000950015C0A5002580B5003580C500458CC
:106CF0000D5005580E5006580F50075810500858A0
:106D0000D8A085EF36F087EF36F097EF36F00950D0
:106D1000015E0A50025A0B50035A0C50045A0D508F
:106D2000055A0E50065A0F50075A1050085AD8905C
:106D300010320F320E320D320C320B320A3209325F
:106D4000112E70EF36F01250D8B4A9EF36F0ABEF39
:106D500036F0BBEF36F0081E071E061E051E041E89
:106D6000031E021E016C000E0222032204220522D1
:106D700006220722082201C001F002C002F003C06F
:106D800003F004C004F005C005F006C006F007C01B
:106D900007F008C008F01200000E126E10BED5EF0A
:106DA00036F0D3EF36F0E7EF36F0101E0F1E0E1E52
:106DB0000D1E0C1E0B1E0A1E096C000E0A220B2251
:106DC0000C220D220E220F221022010E126E08BE7E
:106DD000EEEF36F0ECEF36F000EF37F0081E071E4E
:106DE000061E051E041E031E021E016C000E02225A
:106DF000032204220522062207220822010E121A6B
:106E000020EE13F0070EDE6AE806FDE209500A10D4
:106E10000B100C100D100E100F101010D8B413EF33
:106E200037F015EF37F067EF37F0010E116E23EFF3
:106E300037F0D89009360A360B360C360D360E363A
:106E40000F361036112A10AE28EF37F02AEF37F040
:106E500019EF37F0D8901336143615361636173624
:106E6000183619361A360950015C0A5002580B5070
:106E700003580C5004580D5005580E5006580F502A
:106E8000075810500858D8A048EF37F04AEF37F0AD
:106E90005BEF37F00950015E0A50025A0B50035A5B
:106EA0000C50045A0D50055A0E50065A0F50075AEE
:106EB0001050085A1380D89010320F320E320D3213
:106EC0000C320B320A320932112E2AEF37F01250EF
:106ED000D8B46DEF37F06FEF37F07FEF37F01A1E51
:106EE000191E181E171E161E151E141E136C000EDA
:106EF0001422152216221722182219221A2213C030
:106F000001F014C002F015C003F016C004F017C061
:106F100005F018C006F019C007F01AC008F01200FA
:106F2000FAEF37F07D0E736F7F0E746F89EC31F0DE
:106F300060EF38F0D20E736F7F0E746F89EC31F012
:106F400060EF38F0500E736F7F0E746F89EC31F084
:106F500060EF38F0120E736F7F0E746F89EC31F0B2
:106F600060EF38F06F0E736F7F0E746F89EC31F045
:106F700060EF38F0600E736F7F0E746F89EC31F044
:106F800060EF38F0B00E736F7F0E746F89EC31F0E4
:106F900060EF38F08B0E736F7F0E746F89EC31F0F9
:106FA00060EF38F03F0E736F7F0E746F89EC31F035
:106FB00060EF38F0E60E736F7F0E746F89EC31F07E
:106FC00060EF38F0DD0E736F7F0E746F89EC31F077
:106FD00060EF38F0A40E736F7F0E746F89EC31F0A0
:106FE00060EF38F0C70E736F7F0E746F89EC31F06D
:106FF00060EF38F07DC07FF07EC080F000018051EE
:10700000000AD8B41AEF38F0030AD8B429EF38F0E0
:10701000070AD8B440EF38F0010AD8B447EF38F087
:10702000030AD8B44EEF38F0010AD8B455EF38F05F
:1070300060EF38F07F51C00AD8B492EF37F0010A00
:10704000D8B49AEF37F0110AD8B4A2EF37F060EF56
:1070500038F07F51660AD8B4DAEF37F0E60AD8B4D0
:10706000BAEF37F0070AD8B4C2EF37F00F0AD8B436
:10707000CAEF37F0010AD8B4D2EF37F060EF38F03A
:107080007F51660AD8B4E2EF37F060EF38F07F51F5
:10709000660AD8B4EAEF37F060EF38F07F51660A3D
:1070A000D8B4F2EF37F060EF38F07F51660AD8B409
:1070B000AAEF37F0010AD8B4B2EF37F060EF38F03A
:1070C0001200000E166E80AE68EF38F06AEF38F0EE
:1070D0000FEF39F082A66FEF38F071EF38F099EFCB
:1070E00038F0600053F0D9FF600057F0DAFF020E6D
:1070F000DF6E6F0010FE01F06F0004FE02F06F0003
:1071000008FE03F083507DEC35F020EE01F01450C2
:10711000D9261550DA22600007F0DEFF60000BF080
:10712000DEFF60000FF0DEFF600013F0DEFFB9EF5E
:1071300038F0600053F0D9FF600057F0DAFF010E1D
:10714000DF6E6F0008FE01F081501AEC33F020EE84
:1071500001F01450D9261550DA22600007F0DEFF46
:1071600060000BF0DEFF60000FF0DEFF600013F048
:10717000DEFF20EE05F01450D9261550DA226F00FC
:1071800017FEDFFF20EE06F01450D9261550DA2244
:107190006F001BFEDFFF20EE07F01450D9261550BC
:1071A000DA226F001FFEDFFF20EE08F01450D92610
:1071B0001550DA226F0023FEDFFF20EE09F0145095
:1071C000D9261550DA226F0027FEDFFF20EE0AF0E5
:1071D0001450D9261550DA226F002BFEDFFF20EE67
:1071E0000BF01450D9261550DA226F002FFEDFFF66
:1071F00020EE0CF01450D9261550DA226F0033FE21
:10720000DFFF20EE0DF01450D9261550DA226F0062
:1072100037FEDFFF809E010E166EBBEF39F037019F
:10722000F0AF15EF39F017EF39F0BBEF39F0F2A7F7
:107230001CEF39F01EEF39F046EF39F0600053F0E3
:10724000D9FF600057F0DAFF020EDF6E6D00D0FF4D
:1072500001F06D00C4FF02F06D00C8FF03F0F351B0
:107260007DEC35F020EE01F01450D9261550DA22CD
:10727000600007F0DEFF60000BF0DEFF60000FF043
:10728000DEFF600013F0DEFF66EF39F0600053F0C0
:10729000D9FF600057F0DAFF010EDF6E6D00C8FF06
:1072A00001F0F1511AEC33F020EE01F01450D92620
:1072B0001550DA22600007F0DEFF60000BF0DEFF01
:1072C00060000FF0DEFF600013F0DEFF20EE05F03F
:1072D0001450D9261550DA226D00D7FFDFFF20EEBB
:1072E00006F01450D9261550DA226D00DBFFDFFFBF
:1072F00020EE07F01450D9261550DA226D00DFFF7A
:10730000DFFF20EE08F01450D9261550DA226D0068
:10731000E3FFDFFF20EE09F01450D9261550DA22E2
:107320006D00E7FFDFFF20EE0AF01450D92615505C
:10733000DA226D00EBFFDFFF20EE0BF01450D926B0
:107340001550DA226D00EFFFDFFF20EE0CF0145035
:10735000D9261550DA226D00F3FFDFFF20EE0DF085
:107360001450D9261550DA226D00F7FFDFFF3701E0
:10737000F09F0BEF39F0165012000001A6BFC3EFCB
:1073800039F0C5EF39F0C6EF39F0A793A6BFD3EFB8
:1073900039F0A65106E1A505D8B0D1EF39F0D3EF09
:1073A00039F0D9EF39F0000E366E010E356EDDEF93
:1073B00039F0A5C035F0A6C036F0A3C037F0A4C0A0
:1073C00038F0A7A9E6EF39F0E8EF39F0ECEF39F043
:1073D000FE0E3726FF0E382220C039F021C03AF0C9
:1073E00022C03BF023C03CF024C03DF025C03EF05D
:1073F00026C03FF027C040F0000E426E1F0E416EC7
:10740000000ECA6FB8EF3AF04106D8A042060F0E40
:107410003914436E446A44BE17EF3AF0445009E110
:107420000A0E435CD8A017EF3AF019EF3AF021EFBB
:107430003AF0570E4324436E000E4420446E27EF6B
:107440003AF0300E4324436E000E4420446EBF0ECB
:10745000296EFF0E2A6E28502B6E2C6A29502B267F
:107460002A502C222C500AE11A0E2B5CD8A03BEF9C
:107470003AF03EEF3AF0010E3FEF3AF0000E316E77
:10748000326A31503210D8B448EF3AF04AEF3AF04D
:107490007AEF3AF09F0E296EFF0E2A6E200E4310EF
:1074A0002B6E000E44102C6E29502B262A502C22B5
:1074B0002C500AE11A0E2B5CD8A061EF3AF064EF71
:1074C0003AF0010E65EF3AF0000E336E346A335035
:1074D0003410D8B46EEF3AF070EF3AF07AEF3AF039
:1074E00043C007F044C008F052EC32F007C043F04C
:1074F00008C044F0AB0E4124D96E000E4220DA6E73
:1075000060000FF1DFFF3506D8A036063706D8A099
:10751000380639C029F03AC02AF03BC02BF03CC0F5
:107520002CF03DC02DF03EC02EF03FC02FF040C0EB
:1075300030F0050EA5EF3AF0D89030322F322E32CF
:107540002D322C322B322A322932E82E9CEF3AF09F
:1075500029C039F02AC03AF02BC03BF02CC03CF0D7
:107560002DC03DF02EC03EF02FC03FF030C040F0A7
:1075700042BEC4EF3AF0425009E1020E415CD8A08D
:10758000C4EF3AF0C6EF3AF0F7EF3AF039503A105C
:107590003B103C103D103E103F104010D8A4D3EFDC
:1075A0003AF0D5EF3AF004EF3AF036BEE2EF3AF0B7
:1075B000365006E13504D8B0E0EF3AF0E2EF3AF0A9
:1075C00004EF3AF038BEEDEF3AF0385008E13704F6
:1075D000D8A0EDEF3AF0EFEF3AF0F7EF3AF0000114
:1075E000A7B3F5EF3AF0F7EF3AF004EF3AF0000105
:1075F000A7A9FDEF3AF0FFEF3AF016EF3BF0410696
:10760000D8A04206AB0E4124D96E000E4220DA6E9D
:107610006000A3F0DFFF4106D8A04206AB0E412474
:10762000D96E000E4220DA6E300EDF6E1EC013F0EF
:107630001FC014F0AB0E4124156E000E4220166ED2
:1076400037C017F038C018F0A1EC33F013C01EF0AB
:1076500014C01FF0120020C038F021C039F022C041
:107660003AF023C03BF024C03CF025C03DF026C0DA
:107670003EF027C03FF03FBE40EF3BF043EF3BF012
:10768000010E44EF3BF0000E366E376A365037106D
:10769000D8B44DEF3BF04FEF3BF05FEF3BF03F1EB8
:1076A0003E1E3D1E3C1E3B1E3A1E391E386C000E0F
:1076B00039223A223B223C223D223E223F22000137
:1076C000A6BF65EF3BF067EF3BF068EF3BF0A79399
:1076D000A6BF75EF3BF0A65106E1A505D8B073EF44
:1076E0003BF075EF3BF07BEF3BF0000E336E010E8D
:1076F000326E7FEF3BF0A5C032F0A6C033F0A3C0DE
:1077000034F0A4C035F036503710D8A48AEF3BF0DF
:107710008CEF3BF093EF3BF0A7A591EF3BF093EF9D
:107720003BF096EF3BF03406D8A03506000E416ED4
:107730001F0E406E000ECA6F1AEF3CF04006D8A034
:107740004106AB0E4024D96E000E4120DA6E38C0DF
:1077500001F039C002F03AC003F03BC004F03CC075
:1077600005F03DC006F03EC007F03FC008F00A0E2D
:10777000096E000E0A6E000E0B6E000E0C6E000EEF
:107780000D6E000E0E6E000E0F6E000E106E1AECD7
:1077900036F001C028F002C029F003C02AF004C06E
:1077A0002BF005C02CF006C02DF007C02EF008C04D
:1077B0002FF028C013F02AC014F010EC32F0135050
:1077C000300FDF6E3206D8A033063406D8A0350657
:1077D00038C001F039C002F03AC003F03BC004F0F9
:1077E0003CC005F03DC006F03EC007F03FC008F0C9
:1077F0000A0E096E000E0A6E000E0B6E000E0C6E65
:10780000000E0D6E000E0E6E000E0F6E000E106E4E
:10781000CCEC36F001C038F002C039F003C03AF0C9
:1078200004C03BF005C03CF006C03DF007C03EF090
:1078300008C03FF041BE25EF3CF0415008E1400454
:10784000D8A025EF3CF027EF3CF058EF3CF0385043
:1078500039103A103B103C103D103E103F10D8A498
:1078600034EF3CF036EF3CF09EEF3BF033BE43EF9D
:107870003CF0335006E13204D8B041EF3CF043EF26
:107880003CF09EEF3BF035BE4EEF3CF0355008E14A
:107890003404D8A04EEF3CF050EF3CF058EF3CF0F1
:1078A0000001A7B356EF3CF058EF3CF09EEF3BF0E1
:1078B00036503710D8A45FEF3CF061EF3CF069EF31
:1078C0003CF00001A7A567EF3CF069EF3CF088EFC2
:1078D0003CF04006D8A0410636503710D8A473EFCC
:1078E0003CF075EF3CF07BEF3CF0000E316E2B0E60
:1078F000306E7FEF3CF0000E316E2D0E306EAB0E11
:107900004024D96E000E4120DA6E6000C3F0DFFF24
:107910001EC013F01FC014F0AB0E4024156E000EF5
:107920004120166E34C017F035C018F0A1EC33F0CA
:1079300013C01EF014C01FF0120060001FF1D9FF29
:10794000600023F1DAFF6F007BFFF6FF6F0077FF27
:10795000F7FF0800F550250AD8A4B1EF3CF0B3EFCB
:107960003CF05BEF3FF060001FF1D9FF600023F1B6
:10797000DAFFDE2A000EDD22000E0001A46F000EE9
:10798000A36FA3C0A7F0A4C0A8F0A569A669600072
:107990001FF1D9FF600023F1DAFF6F007BFFF6FFD4
:1079A0006F0077FFF7FF0800F550640AD8B4DBEFEB
:1079B0003CF0DDEF3CF0F3EF3CF060001FF1D9FF4D
:1079C000600023F1DAFF6F007BFFF6FF6F0077FFA7
:1079D000F7FF0800F550690AD8A4F1EF3CF0F3EF87
:1079E0003CF03DEF3DF060001FF1D9FF600023F156
:1079F000DAFFDE2A000EDD22600027F1D9FF6000E9
:107A00002BF1DAFF6F007CFF4BF0020EDE266F00D9
:107A10007CFF4CF0000EDD2260002FF1D9FF6000EA
:107A200033F1DAFF6F0078FF60F06F0074FF61F0F0
:107A3000000E61BFFF0E626F636F646F656F666FEC
:107A4000676F45C01EF046C01FF060C020F061C0E7
:107A500021F062C022F063C023F064C024F065C04E
:107A600025F066C026F067C027F02BEC3BF01EC067
:107A700045F01FC046F07CEF3FF060001FF1D9FFDA
:107A8000600023F1DAFF6F0078FF01F06F0074FFF0
:107A900002F0F20E036E7F0E046E000E066E020EF2
:107AA000056E73EC34F001500210D8B45AEF3DF07B
:107AB0005CEF3DF07BEF3DF060001FF1D9FF60000F
:107AC00023F1DAFF6F0078FF01F06F0074FF02F01E
:107AD000F50E036E7F0E046E000E066E020E056E2E
:107AE00073EC34F001500210D8A479EF3DF07BEF35
:107AF0003DF0E4EF3DF0020E60001FF1D9FF6000A1
:107B000023F1DAFFDE26000EDD22600027F1D9FF27
:107B100060002BF1DAFF6F007CFF4BF0040EDE26D5
:107B20006F007CFF4CF0000EDD2260002FF1D9FFCA
:107B3000600033F1DAFF6F0078FF4DF06F0078FFDF
:107B40004EF06F0078FF4FF06F0078FF50F04DC09F
:107B500051F04EC052F04FC053F050C054F0556A2F
:107B600054BE556855C056F055C057F055C058F032
:107B700051C060F052C061F053C062F054C063F075
:107B800055C064F056C065F057C066F058C067F045
:107B900045C01EF046C01FF060C020F061C021F05B
:107BA00062C022F063C023F064C024F065C025F0F9
:107BB00066C026F067C027F02BEC3BF01EC045F0F6
:107BC0001FC046F07CEF3FF060001FF1D9FF60005E
:107BD00023F1DAFF6F007BFFF6FF6F0077FFF7FFFF
:107BE0000800F550780AD8B4F8EF3DF0FAEF3DF010
:107BF00010EF3EF060001FF1D9FF600023F1DAFFC3
:107C00006F007BFFF6FF6F0077FFF7FF0800F5506E
:107C1000580AD8A40EEF3EF010EF3EF06EEF3EF0A3
:107C200060001FF1D9FF600023F1DAFF6F007BFFD6
:107C3000F6FF6F0077FFF7FF08006F00D4FF70F0CA
:107C400060001FF1D9FF600023F1DAFFDE2A000E89
:107C5000DD22600027F1D9FF60002BF1DAFF6F0011
:107C60007CFF4BF0020EDE266F007CFF4CF0000E16
:107C7000DD2260002FF1D9FF600033F1DAFF6F00E1
:107C800078FF4DF06F0074FF4EF04DC068F04EC0AD
:107C900069F000016A6B6B6B6C6B6D6B6E6B6F6B7D
:107CA00045C01EF046C01FF068C020F069C021F03A
:107CB0006AC022F06BC023F06CC024F06DC025F0C8
:107CC0006EC026F06FC027F070C028F0BDEC39F010
:107CD0001EC045F01FC046F07CEF3FF060001FF172
:107CE000D9FF600023F1DAFF6F0078FF01F06F0029
:107CF00074FF02F0F80E036E7F0E046E000E066E27
:107D0000020E056E73EC34F001500210D8B48BEF04
:107D10003EF08DEF3EF0ACEF3EF060001FF1D9FF7A
:107D2000600023F1DAFF6F0078FF01F06F0074FF4D
:107D300002F0EF0E036E7F0E046E000E066E020E52
:107D4000056E73EC34F001500210D8A4AAEF3EF097
:107D5000ACEF3EF01DEF3FF060001FF1D9FF600077
:107D600023F1DAFF6F0078FF4BF06F0074FF4CF0E7
:107D7000010E4B26000E4C2260002FF1F6FF600032
:107D800033F1F7FF08006F00D4FF70F0020E6000BF
:107D90001FF1D9FF600023F1DAFFDE26000EDD229D
:107DA000600027F1D9FF60002BF1DAFF6F007CFF44
:107DB0004BF0040EDE266F007CFF4CF0000EDD223F
:107DC00060002FF1D9FF600033F1DAFF6F0078FF18
:107DD0004DF06F0078FF4EF06F0078FF4FF06F00AE
:107DE00078FF50F04D500001686F4E50696F4F5052
:107DF0006A6F50506B6F6C6B6D6B6E6B6F6B45C0C9
:107E00001EF046C01FF068C020F069C021F06AC0B3
:107E100022F06BC023F06CC024F06DC025F06EC062
:107E200026F06FC027F070C028F0BDEC39F01EC0FE
:107E300045F01FC046F07CEF3FF060001FF1D9FF16
:107E4000600023F1DAFF6F007BFFF6FF6F0077FF22
:107E5000F7FF0800F550250AD8A431EF3FF033EFC3
:107E60003FF04CEF3FF060001FF1D9FF600023F1BD
:107E7000DAFFDE2A000EDD22000E046E250E036EF0
:107E800045C005F046C006F056EC33F0000E466ED5
:107E9000010E456E7CEF3FF060001FF1D9FF6000DE
:107EA00023F1DAFFDE2A000EDD22000E466E000E00
:107EB000456E7CEF3FF060001FF1D9FF600023F1B9
:107EC000DAFF6F007BFFF6FF6F0077FFF7FF080018
:107ED000F550036E046A45C005F046C006F056EC46
:107EE00033F060001FF1D9FF600023F1DAFFDE2AD2
:107EF000000EDD2246EF3FF012000043414E204DC0
:107F00006573736167652072656365697665643A58
:107F10002000544F525155455F52455155455354D9
:107F20005F434F4D4D414E44004E6F204D6573737E
:107F30006167652072656365697665643A0A004227
:107F40004D535F54454D5045524154555245530091
:107F50004452495645525F5357495443484553008C
:107F6000424D535F5354415455535F4D5347004264
:107F700052414B455F434F4D4D414E44005645489D
:107F800049434C455F535441544500424D535F565D
:107F90004F4C5441474553006461746125643A2055
:107FA00025640A004D435F50444F5F53454E4400E3
:107FB0005045495F43555252454E540049443A207A
:107FC0003078256C780A004D435F50444F5F414341
:107FD0004B00425350445F464C414753004D435F72
:107FE0004445425547004D435F4553544F50006C44
:107FF00058006C64006C69006C78000077EF31F019
:020000040020DA
:10000000FF0FFF0FFF0FFF0FFF0FFF0FFF0FFF0F80
:020000040030CA
:0A0000008CFFF7FF9FFFFFFFFFFFDB
:00000001FF
