:04000000FEEF3FF0E0
:0400080038EF19F0C4
:02001800FF00E7
:101000000053656E64696E67202564206F6E204909
:10101000443A203078256C780A0043414E204D65D3
:1010200073736167652072656365697665643A20EC
:1010300000546F727175655F526571756573745F89
:10104000436F6D6D616E64004E6F204D657373610B
:1010500067652072656365697665643A0A00424D8A
:10106000535F54656D706572617475726573004489
:1010700072697665725F5377697463686573005649
:10108000656869636C655F537461746500424D53B4
:101090005F566F6C74616765730064617461256489
:1010A0003A2025640A00424D535F5374617475738E
:1010B000006C58006C64006C69006C780000600083
:1010C0001FF1D9FF600023F1DAFF6F007BFFF6FF0D
:1010D0006F0077FFF7FF0800F550250AD8A473EFDB
:1010E00008F075EF08F01DEF0BF060001FF1D9FF5D
:1010F000600023F1DAFFDE2A000EDD22000E00017F
:10110000A76F000EA66FA6C0AAF0A7C0ABF0A86993
:10111000A96960001FF1D9FF600023F1DAFF6F00B9
:101120007BFFF6FF6F0077FFF7FF0800F550640ABA
:10113000D8B49DEF08F09FEF08F0B5EF08F060001D
:101140001FF1D9FF600023F1DAFF6F007BFFF6FF8C
:101150006F0077FFF7FF0800F550690AD8A4B3EFD6
:1011600008F0B5EF08F0FFEF08F060001FF1D9FFBD
:10117000600023F1DAFFDE2A000EDD22600027F195
:10118000D9FF60002BF1DAFF6F007CFF4BF0020EFD
:10119000DE266F007CFF4CF0000EDD2260002FF198
:1011A000D9FF600033F1DAFF6F0078FF60F06F0065
:1011B00074FF61F0000E61BFFF0E626F636F646FBA
:1011C000656F666F676F45C01EF046C01FF060C058
:1011D00020F061C021F062C022F063C023F064C03F
:1011E00024F065C025F066C026F067C027F0EFEC5C
:1011F0000CF01EC045F01FC046F03EEF0BF0600043
:101200001FF1D9FF600023F1DAFF6F0078FF01F0D2
:101210006F0074FF02F0B40E036E100E046E000E29
:10122000066E020E056EEDEC14F001500210D8B4FB
:101230001CEF09F01EEF09F03DEF09F060001FF10F
:10124000D9FF600023F1DAFF6F0078FF01F06F0033
:1012500074FF02F0B70E036E100E046E000E066EE1
:10126000020E056EEDEC14F001500210D8A43BEF15
:1012700009F03DEF09F0A6EF09F0020E60001FF142
:10128000D9FF600023F1DAFFDE26000EDD226000C8
:1012900027F1D9FF60002BF1DAFF6F007CFF4BF0E4
:1012A000040EDE266F007CFF4CF0000EDD22600095
:1012B0002FF1D9FF600033F1DAFF6F0078FF4DF0B6
:1012C0006F0078FF4EF06F0078FF4FF06F0078FFEF
:1012D00050F04DC051F04EC052F04FC053F050C0CE
:1012E00054F0556A54BE556855C056F055C057F075
:1012F00055C058F051C060F052C061F053C062F068
:1013000054C063F055C064F056C065F057C066F035
:1013100058C067F045C01EF046C01FF060C020F006
:1013200061C021F062C022F063C023F064C024F0E9
:1013300065C025F066C026F067C027F0EFEC0CF022
:101340001EC045F01FC046F03EEF0BF060001FF1DD
:10135000D9FF600023F1DAFF6F007BFFF6FF6F001B
:1013600077FFF7FF0800F550780AD8B4BAEF09F014
:10137000BCEF09F0D2EF09F060001FF1D9FF600067
:1013800023F1DAFF6F007BFFF6FF6F0077FFF7FFB7
:101390000800F550580AD8A4D0EF09F0D2EF09F0B0
:1013A00030EF0AF060001FF1D9FF600023F1DAFF8F
:1013B0006F007BFFF6FF6F0077FFF7FF08006F00FD
:1013C000D4FF70F060001FF1D9FF600023F1DAFF55
:1013D000DE2A000EDD22600027F1D9FF60002BF12C
:1013E000DAFF6F007CFF4BF0020EDE266F007CFF01
:1013F0004CF0000EDD2260002FF1D9FF600033F1C8
:10140000DAFF6F0078FF4DF06F0074FF4EF04DC0B3
:1014100068F04EC069F000016A6B6B6B6C6B6D6BB2
:101420006E6B6F6B45C01EF046C01FF068C020F0A9
:1014300069C021F06AC022F06BC023F06CC024F0B8
:101440006DC025F06EC026F06FC027F070C028F088
:1014500061EC0EF01EC045F01FC046F03EEF0BF0F1
:1014600060001FF1D9FF600023F1DAFF6F0078FF01
:1014700001F06F0074FF02F0BA0E036E100E046EDE
:10148000000E066E020E056EEDEC14F00150021017
:10149000D8B44DEF0AF04FEF0AF06EEF0AF060009B
:1014A0001FF1D9FF600023F1DAFF6F0078FF01F030
:1014B0006F0074FF02F0B10E036E100E046E000E8A
:1014C000066E020E056EEDEC14F001500210D8A469
:1014D0006CEF0AF06EEF0AF0DFEF0AF060001FF128
:1014E000D9FF600023F1DAFF6F0078FF4BF06F0047
:1014F00074FF4CF0010E4B26000E4C2260002FF1C1
:10150000F6FF600033F1F7FF08006F00D4FF70F0C2
:10151000020E60001FF1D9FF600023F1DAFFDE2622
:10152000000EDD22600027F1D9FF60002BF1DAFF09
:101530006F007CFF4BF0040EDE266F007CFF4CF04A
:10154000000EDD2260002FF1D9FF600033F1DAFFD9
:101550006F0078FF4DF06F0078FF4EF06F0078FF5E
:101560004FF06F0078FF50F04D500001686F4E5003
:10157000696F4F506A6F50506B6F6C6B6D6B6E6B19
:101580006F6B45C01EF046C01FF068C020F069C0F8
:1015900021F06AC022F06BC023F06CC024F06DC053
:1015A00025F06EC026F06FC027F070C028F061EC07
:1015B0000EF01EC045F01FC046F03EEF0BF060007D
:1015C0001FF1D9FF600023F1DAFF6F007BFFF6FF08
:1015D0006F0077FFF7FF0800F550250AD8A4F3EF56
:1015E0000AF0F5EF0AF00EEF0BF060001FF1D9FFE3
:1015F000600023F1DAFFDE2A000EDD22000E046E09
:10160000250E036E45C005F046C006F0FCEC16F052
:10161000000E466E010E456E3EEF0BF060001FF1AE
:10162000D9FF600023F1DAFFDE2A000EDD22000E72
:10163000466E000E456E3EEF0BF060001FF1D9FFC5
:10164000600023F1DAFF6F007BFFF6FF6F0077FF8A
:10165000F7FF0800F550036E046A45C005F046C068
:1016600006F0FCEC16F060001FF1D9FF600023F1DA
:10167000DAFFDE2A000EDD2208EF0BF01200000E6A
:10168000166E000E176E000E186E000E196E000E0C
:10169000156E3701E0B74FEF0BF051EF0BF0D7EFBE
:1016A0000BF020EE01F01350D9261450DA226F000F
:1016B00078FF01F06F0078FF02F06F0078FF03F011
:1016C0006F0078FF04F060004FF0D9FF600053F026
:1016D000DAFFDF50056E160E066E000E076E170E4F
:1016E000086E000E096E180E0A6E000E0B6E190EB3
:1016F0000C6E000E0D6E0EEC12F060005BF0E3F766
:1017000060005FF0E4F7600063F0E1F7600067F00D
:10171000E2F720EE05F01350D9261450DA22DF50FC
:101720003701E56F20EE06F01350D9261450DA2267
:10173000DF50E66F20EE07F01350D9261450DA225E
:10174000DF50E76F20EE08F01350D9261450DA224C
:10175000DF50E86F20EE09F01350D9261450DA223A
:10176000DF50E96F20EE0AF01350D9261450DA2228
:10177000DF50EA6F20EE0BF01350D9261450DA2216
:10178000DF50EB6F20EE0CF01350D9261450DA2204
:10179000DF50EC6F20EE0DF01350D9261450DA22F2
:1017A000DF50ED6FE087010E156EEDEF0CF0D0B756
:1017B000DCEF0BF0DEEF0BF062EF0CF020EE01F04F
:1017C0001350D9261450DA226F0078FF01F06F0011
:1017D00078FF02F06F0078FF03F06F0078FF04F0ED
:1017E00060004FF0D9FF600053F0DAFFDF50056E64
:1017F000160E066E000E076E170E086E000E096EAE
:10180000180E0A6E000E0B6E190E0C6E000E0D6E89
:101810000EEC12F060005BF0D3F760005FF0D4F7DD
:10182000600063F0D1F7600067F0D2F720EE05F0BA
:101830001350D9261450DA22DF503701D56F20EE2D
:1018400006F01350D9261450DA22DF50D66F20EE5E
:1018500007F01350D9261450DA22DF50D76F20EE4C
:1018600008F01350D9261450DA22DF50D86F20EE3A
:1018700009F01350D9261450DA22DF50D96F20EE28
:101880000AF01350D9261450DA22DF50DA6F20EE16
:101890000BF01350D9261450DA22DF50DB6F20EE04
:1018A0000CF01350D9261450DA22DF50DC6F20EEF2
:1018B0000DF01350D9261450DA22DF50DD6FD08797
:1018C000D3EF0BF0C0B767EF0CF069EF0CF0EDEF62
:1018D0000CF020EE01F01350D9261450DA226F00DC
:1018E00078FF01F06F0078FF02F06F0078FF03F0DF
:1018F0006F0078FF04F060004FF0D9FF600053F0F4
:10190000DAFFDF50056E160E066E000E076E170E1C
:10191000086E000E096E180E0A6E000E0B6E190E80
:101920000C6E000E0D6E0EEC12F060005BF0C3F753
:1019300060005FF0C4F7600063F0C1F7600067F01B
:10194000C2F720EE05F01350D9261450DA22DF50EA
:101950003701C56F20EE06F01350D9261450DA2255
:10196000DF50C66F20EE07F01350D9261450DA224C
:10197000DF50C76F20EE08F01350D9261450DA223A
:10198000DF50C86F20EE09F01350D9261450DA2228
:10199000DF50C96F20EE0AF01350D9261450DA2216
:1019A000DF50CA6F20EE0BF01350D9261450DA2204
:1019B000DF50CB6F20EE0CF01350D9261450DA22F2
:1019C000DF50CC6F20EE0DF01350D9261450DA22E0
:1019D000DF50CD6FC087D3EF0BF01550120020C041
:1019E00038F021C039F022C03AF023C03BF024C0C7
:1019F0003CF025C03DF026C03EF027C03FF03FBE82
:101A000004EF0DF007EF0DF0010E08EF0DF0000EE2
:101A1000366E376A36503710D8B411EF0DF013EF29
:101A20000DF023EF0DF03F1E3E1E3D1E3C1E3B1EE3
:101A30003A1E391E386C000E39223A223B223C22D3
:101A40003D223E223F220001A9BF29EF0DF02BEFDE
:101A50000DF02CEF0DF0AA93A9BF39EF0DF0A951AD
:101A600006E1A805D8B037EF0DF039EF0DF03FEFE4
:101A70000DF0000E336E010E326E43EF0DF0A8C074
:101A800032F0A9C033F0A6C034F0A7C035F036500C
:101A90003710D8A44EEF0DF050EF0DF057EF0DF0CA
:101AA000AAA555EF0DF057EF0DF05AEF0DF03406E3
:101AB000D8A03506000E416E1F0E406E000ECD6F91
:101AC000DEEF0DF04006D8A04106AE0E4024D96EE0
:101AD000000E4120DA6E38C001F039C002F03AC081
:101AE00003F03BC004F03CC005F03DC006F03EC032
:101AF00007F03FC008F00A0E096E000E0A6E000ED5
:101B00000B6E000E0C6E000E0D6E000E0E6E000EB3
:101B10000F6E000E106E9EEC13F001C028F002C094
:101B200029F003C02AF004C02BF005C02CF006C039
:101B30002DF007C02EF008C02FF028C013F02AC0E7
:101B400014F06DEC18F01350300FDF6E3206D8A091
:101B500033063406D8A0350638C001F039C002F08B
:101B60003AC003F03BC004F03CC005F03DC006F0B5
:101B70003EC007F03FC008F00A0E096E000E0A6E64
:101B8000000E0B6E000E0C6E000E0D6E000E0E6E33
:101B9000000E0F6E000E106EDAEC12F001C038F07D
:101BA00002C039F003C03AF004C03BF005C03CF07D
:101BB00006C03DF007C03EF008C03FF041BEE9EF6F
:101BC0000DF0415008E14004D8A0E9EF0DF0EBEF33
:101BD0000DF01CEF0EF0385039103A103B103C104D
:101BE0003D103E103F10D8A4F8EF0DF0FAEF0DF0C5
:101BF00062EF0DF033BE07EF0EF0335006E1320412
:101C0000D8B005EF0EF007EF0EF062EF0DF035BE25
:101C100012EF0EF0355008E13404D8A012EF0EF0A8
:101C200014EF0EF01CEF0EF00001AAB31AEF0EF045
:101C30001CEF0EF062EF0DF036503710D8A423EFF2
:101C40000EF025EF0EF02DEF0EF00001AAA52BEF00
:101C50000EF02DEF0EF04CEF0EF04006D8A041062E
:101C600036503710D8A437EF0EF039EF0EF03FEFB3
:101C70000EF0000E316E2B0E306E43EF0EF0000EA4
:101C8000316E2D0E306EAE0E4024D96E000E412006
:101C9000DA6E6000C3F0DFFF1EC013F01FC014F047
:101CA000AE0E4024156E000E4120166E34C017F0A3
:101CB00035C018F041EC16F013C01EF014C01FF030
:101CC00012000001A9BF67EF0EF069EF0EF06AEF96
:101CD0000EF0AA93A9BF77EF0EF0A95106E1A8056F
:101CE000D8B075EF0EF077EF0EF07DEF0EF0000E2E
:101CF000366E010E356E81EF0EF0A8C035F0A9C02A
:101D000036F0A6C037F0A7C038F0AAA98AEF0EF0C7
:101D10008CEF0EF090EF0EF0FE0E3726FF0E3822FD
:101D200020C039F021C03AF022C03BF023C03CF083
:101D300024C03DF025C03EF026C03FF027C040F053
:101D4000000E426E1F0E416E000ECD6F5CEF0FF065
:101D50004106D8A042060F0E3914436E446A44BEB1
:101D6000BBEF0EF0445009E10A0E435CD8A0BBEF74
:101D70000EF0BDEF0EF0C5EF0EF0570E4324436E8C
:101D8000000E4420446ECBEF0EF0300E4324436E21
:101D9000000E4420446EBF0E296EFF0E2A6E28509E
:101DA0002B6E2C6A29502B262A502C222C500AE10B
:101DB0001A0E2B5CD8A0DFEF0EF0E2EF0EF0010E52
:101DC000E3EF0EF0000E316E326A31503210D8B4AB
:101DD000ECEF0EF0EEEF0EF01EEF0FF09F0E296EFF
:101DE000FF0E2A6E200E43102B6E000E44102C6E38
:101DF00029502B262A502C222C500AE11A0E2B5C3B
:101E0000D8A005EF0FF008EF0FF0010E09EF0FF06B
:101E1000000E336E346A33503410D8B412EF0FF022
:101E200014EF0FF01EEF0FF043C007F044C008F0AE
:101E30001CEC18F007C043F008C044F0AE0E41247B
:101E4000D96E000E4220DA6E60000FF1DFFF35061A
:101E5000D8A036063706D8A0380639C029F03AC0CF
:101E60002AF03BC02BF03CC02CF03DC02DF03EC012
:101E70002EF03FC02FF040C030F0050E49EF0FF0BC
:101E8000D89030322F322E322D322C322B322A3251
:101E90002932E82E40EF0FF029C039F02AC03AF07D
:101EA0002BC03BF02CC03CF02DC03DF02EC03EF0CE
:101EB0002FC03FF030C040F042BE68EF0FF04250FC
:101EC00009E1020E415CD8A068EF0FF06AEF0FF055
:101ED0009BEF0FF039503A103B103C103D103E1074
:101EE0003F104010D8A477EF0FF079EF0FF0A8EF74
:101EF0000EF036BE86EF0FF0365006E13504D8B04E
:101F000084EF0FF086EF0FF0A8EF0EF038BE91EFE0
:101F10000FF0385008E13704D8A091EF0FF093EF9D
:101F20000FF09BEF0FF00001AAB399EF0FF09BEFBA
:101F30000FF0A8EF0EF00001AAA9A1EF0FF0A3EF98
:101F40000FF0BAEF0FF04106D8A04206AE0E4124C2
:101F5000D96E000E4220DA6E6000A3F0DFFF41066A
:101F6000D8A04206AE0E4124D96E000E4220DA6E91
:101F7000300EDF6E1EC013F01FC014F0AE0E4124F1
:101F8000156E000E4220166E37C017F038C018F0DC
:101F900041EC16F013C01EF014C01FF01200000E2A
:101FA000166E80AED6EF0FF0D8EF0FF07DEF10F089
:101FB00082A6DDEF0FF0DFEF0FF007EF10F060000B
:101FC00053F0D9FF600057F0DAFF020EDF6E6F00AA
:101FD00010FE01F06F0004FE02F06F0008FE03F037
:101FE000835050EC14F020EE01F01450D926155017
:101FF000DA22600007F0DEFF60000BF0DEFF600019
:102000000FF0DEFF600013F0DEFF27EF10F060003E
:1020100053F0D9FF600057F0DAFF010EDF6E6F005A
:1020200008FE01F0815047EC17F020EE01F014504B
:10203000D9261550DA22600007F0DEFF60000BF0B1
:10204000DEFF60000FF0DEFF600013F0DEFF20EE29
:1020500005F01450D9261550DA226F0017FEDFFF65
:1020600020EE06F01450D9261550DA226F001BFE20
:10207000DFFF20EE07F01450D9261550DA226F004A
:102080001FFEDFFF20EE08F01450D9261550DA228B
:102090006F0023FEDFFF20EE09F01450D926155003
:1020A000DA226F0027FEDFFF20EE0AF01450D92657
:1020B0001550DA226F002BFEDFFF20EE0BF01450DC
:1020C000D9261550DA226F002FFEDFFF20EE0CF02C
:1020D0001450D9261550DA226F0033FEDFFF20EEB0
:1020E0000DF01450D9261550DA226F0037FEDFFFAD
:1020F000809E010E166E29EF11F03701F0AF83EFCD
:1021000010F085EF10F029EF11F0F2A78AEF10F030
:102110008CEF10F0B4EF10F0600053F0D9FF6000C6
:1021200057F0DAFF020EDF6E6D00D0FF01F06D0098
:10213000C4FF02F06D00C8FF03F0F35150EC14F03F
:1021400020EE01F01450D9261550DA22600007F075
:10215000DEFF60000BF0DEFF60000FF0DEFF6000CE
:1021600013F0DEFFD4EF10F0600053F0D9FF6000F1
:1021700057F0DAFF010EDF6E6D00C8FF01F0F1517C
:1021800047EC17F020EE01F01450D9261550DA2252
:10219000600007F0DEFF60000BF0DEFF60000FF074
:1021A000DEFF600013F0DEFF20EE05F01450D926AC
:1021B0001550DA226D00D7FFDFFF20EE06F0145035
:1021C000D9261550DA226D00DBFFDFFF20EE07F085
:1021D0001450D9261550DA226D00DFFFDFFF20EE04
:1021E00008F01450D9261550DA226D00E3FFDFFF06
:1021F00020EE09F01450D9261550DA226D00E7FFC1
:10220000DFFF20EE0AF01450D9261550DA226D00B7
:10221000EBFFDFFF20EE0BF01450D9261550DA2229
:102220006D00EFFFDFFF20EE0CF01450D9261550A3
:10223000DA226D00F3FFDFFF20EE0DF01450D926F7
:102240001550DA226D00F7FFDFFF3701F09F79EFBD
:1022500010F01650120068EC19F0010E0001966F94
:10226000D00E976F000E986F000E996F000E9A6F48
:10227000010E9B6F020E9C6F000E866F880E146E0F
:10228000000E156ECFEC0FF00009D8B44AEF11F034
:102290004CEF11F0A2EF11F01A0E0001736F100E47
:1022A000746F00EC19F089C07FF08AC080F0D9EC1F
:1022B00015F05C0E0001736F100E746F00EC19F0D6
:1022C0000F0E0001736F100E746F89C075F08AC015
:1022D00076F08BC077F08CC078F000EC19F0000E2F
:1022E0000001876F91EF11F09A0E736F100E746FEB
:1022F00087C075F0766B8751836F846B060E8327DA
:10230000000E8423880E8325D96E000E8421DA6E98
:10231000DF50856F8551776F786B00EC19F0000105
:10232000872B8D51875DD8A098EF11F09AEF11F0AF
:1023300074EF11F05C0E736F100E746F00EC19F0F7
:10234000A9EF11F0480E0001736F100E746F00ECCE
:1023500019F086C001F0026A000E046E640E036E6E
:10236000A4EC16F001500210D8A4B9EF11F0BBEFA5
:1023700011F0FBEF11F0960E136E000E146E3FEC91
:102380000BF00009D8B4C7EF11F0C9EF11F0EBEF73
:1023900011F0BAB0CEEF11F0D1EF11F0010ED2EF83
:1023A00011F0000EFF0A0001836FBA508319FE0B73
:1023B0008319BA6E010E736F100E746F9CC075F0A6
:1023C000766B97C077F098C078F099C079F09AC092
:1023D0007AF000EC19F0020E00019C19D8A4F3EF7A
:1023E00011F0F5EF11F0F9EF11F0000E9C6FFBEF1B
:1023F00011F0020E9C6F0001862B090E0001846F04
:102400001E0E836FE40EE82EFED7832FFCD7842F99
:10241000FAD700F03EEF11F0FEEF3FF0020E051884
:10242000D8A415EF12F017EF12F0A5EF12F060002C
:1024300023F0D9FF600027F0DAFF600007F0DFFF2C
:1024400001C00EF002C00FF003C010F004C011F084
:102450000FC00EF010C00FF011C010F0116A0EC0C6
:1024600001F00FC002F010C003F011C004F06000D2
:102470001BF0D9FF60001FF0DAFF600007F0DFFFFC
:1024800001C00EF002C00FF003C010F004C011F044
:102490000FC00EF010C00FF011C010F0116A0EC086
:1024A00001F00FC002F010C003F011C004F00150A1
:1024B000030B126E01C00EF002C00FF003C010F04B
:1024C00004C011F0030ED8900E360F3610361136B8
:1024D000E82E63EF12F00EC001F00FC002F010C042
:1024E00003F011C004F00150E00B1224126E1250E0
:1024F000080F126E1250EB0B600033F0D9FF600032
:1025000037F0DAFFDF6E01C00EF002C00FF003C03B
:1025100010F004C011F00FC00EF010C00FF011C089
:1025200010F0116A0EC001F00FC002F010C003F0ED
:1025300011C004F060002BF0D9FF60002FF0DAFF2B
:10254000600007F0DFFFD9EF12F060001BF0D9FF49
:1025500060001FF0DAFF000EDF6E600023F0D9FF8D
:10256000600027F0DAFF000EDF6E01C00EF002C03F
:102570000FF003C010F004C011F0050ED8900E3615
:102580000F3610361136E82EBEEF12F00EC001F0F5
:102590000FC002F010C003F011C004F0600033F06F
:1025A000D9FF600037F0DAFF600007F0DFFF83EF4C
:1025B00012F01200000E126E10BEE3EF12F0E1EF07
:1025C00012F0F5EF12F0101E0F1E0E1E0D1E0C1E47
:1025D0000B1E0A1E096C000E0A220B220C220D2271
:1025E0000E220F221022010E126E08BEFCEF12F016
:1025F000FAEF12F00EEF13F0081E071E061E051E5E
:10260000041E031E021E016C000E0222032204227D
:102610000522062207220822010E121A20EE13F0CC
:10262000070EDE6AE806FDE209500A100B100C10D6
:102630000D100E100F101010D8B421EF13F023EF6F
:1026400013F075EF13F0010E116E31EF13F0D89007
:1026500009360A360B360C360D360E360F36103666
:10266000112A10AE36EF13F038EF13F027EF13F006
:10267000D8901336143615361636173618361936DE
:102680001A360950015C0A5002580B5003580C507E
:1026900004580D5005580E5006580F50075810504A
:1026A0000858D8A056EF13F058EF13F069EF13F065
:1026B0000950015E0A50025A0B50035A0C50045A3A
:1026C0000D50055A0E50065A0F50075A1050085A0E
:1026D0001380D89010320F320E320D320C320B3282
:1026E0000A320932112E38EF13F01250D8B47BEFB2
:1026F00013F07DEF13F08DEF13F01A1E191E181E44
:10270000171E161E151E141E136C000E1422152201
:1027100016221722182219221A2213C001F014C0FF
:1027200002F015C003F016C004F017C005F018C081
:1027300006F019C007F01AC008F01200000E126E61
:1027400008BEA7EF13F0A5EF13F0B9EF13F0081EC2
:10275000071E061E051E041E031E021E016C000E2F
:102760000222032204220522062207220822010E49
:10277000126E10BEC0EF13F0BEEF13F0D0EF13F0E7
:10278000101E0F1E0E1E0D1E0C1E0B1E0A1E096CA7
:10279000000E0A220B220C220D220E220F221022E2
:1027A00009500A100B100C100D100E100F10101005
:1027B000D8B4DDEF13F0DFEF13F027EF14F0010EC4
:1027C000116EEDEF13F0D89009360A360B360C3641
:1027D0000D360E360F361036112A10AEF2EF13F00A
:1027E000F4EF13F0E3EF13F00950015C0A500258C4
:1027F0000B5003580C5004580D5005580E500658F5
:102800000F50075810500858D8A009EF14F00BEFDC
:1028100014F01BEF14F00950015E0A50025A0B50DD
:10282000035A0C50045A0D50055A0E50065A0F50B8
:10283000075A1050085AD89010320F320E320D320B
:102840000C320B320A320932112EF4EF13F012500F
:10285000D8B42DEF14F02FEF14F03FEF14F0081E52
:10286000071E061E051E041E031E021E016C000E1E
:10287000022203220422052206220722082201C086
:1028800001F002C002F003C003F004C004F005C070
:1028900005F006C006F007C007F008C008F01200F7
:1028A000096E000E106E000E116E000E126E000EFC
:1028B000136E0350030B0E6E0338E842070B0F6EC6
:1028C0000250056E066AD89005360636D890053651
:1028D0000636D8900536063605C010F006C011F051
:1028E000000E11BEFF0E126E136E0F501024106EEC
:1028F000000E1120116E000E1220126E000E132019
:10290000136E10C005F011C006F012C007F013C01E
:1029100008F0020ED8900536063607360836E82E3F
:102920008AEF14F005C010F006C011F007C012F0D5
:1029300008C013F00E501024106E000E1120116EFE
:10294000000E1220126E000E1320136E10C006F03F
:1029500011C007F012C008F0056A05C010F006C0EB
:1029600011F007C012F008C013F009501024106EC7
:10297000000E1120116E000E1220126E000E132098
:10298000136E10C006F011C007F012C008F0056AFF
:1029900005C010F006C011F007C012F008C013F017
:1029A00001501024106E000E1120116E000E122026
:1029B000126E000E1320136E10C00AF011C00BF03F
:1029C00012C00CF013C00DF00AC001F00BC002F0F1
:1029D0000CC003F00DC004F0120001C008F002C0EA
:1029E00009F003C00AF004C00BF00506D8A00606E3
:1029F000052806E10628D8A400EF15F002EF15F02F
:102A00000FEF15F0000E026E000E016E69EF15F06B
:102A1000084A092A0A4A0B2A0506D8A006066000B9
:102A200023F0F6FF600027F0F7FF0800F5500009DB
:102A3000D8B41DEF15F01FEF15F052EF15F0600040
:102A40002BF0F6FF60002FF0F7FF0800F5500009AB
:102A5000D8B42DEF15F02FEF15F052EF15F005500B
:102A60000610D8B436EF15F038EF15F052EF15F028
:102A7000600023F0F6FF600027F0F7FF08006F000A
:102A8000D4FF07F060002BF0F6FF60002FF0F7FF97
:102A90000800F5500718D8B450EF15F052EF15F0B4
:102AA00008EF15F0600023F0F6FF600027F0F7FF55
:102AB00008006F00D4FF07F060002BF0F6FF600005
:102AC0002FF0F7FF0800F550075C016E026AD8A0EE
:102AD00002061200800E8F6E8E50E00B800AD8A482
:102AE00074EF15F076EF15F06CEF15F0000E916EA7
:102AF000000E3701006F000EBA6F000EBB6F000EA4
:102B0000B86F000EB96F000EBE6F000EBF6F000EE3
:102B1000BC6F000EBD6F000EA26F000EA36F000E03
:102B2000A06F000EA16F000EA66F000EA76F000E23
:102B3000A46F000EA56F000EAA6F000EAB6F000E03
:102B4000A86F000EA96F000EAE6F000EAF6F000EE3
:102B5000AC6F000EAD6F000EB26F000EB36F000EC3
:102B6000B06F000EB16F000EB66F000EB76F000EA3
:102B7000B46F000EB56F1F0E036F980E046F010E39
:102B8000056F380E016E330E026E95EC19F03901A7
:102B9000A59D958D000E8F6E6F0038FE03F0E00E40
:102BA0000316D8A4D6EF15F0D8EF15F0CCEF15F03A
:102BB00012000BEF16F07F0E736F100E746F00ECA7
:102BC00019F040EF16F06F0E736F100E746F00EC7B
:102BD00019F040EF16F0310E736F100E746F00ECA9
:102BE00019F040EF16F0A60E736F100E746F00EC24
:102BF00019F040EF16F08D0E736F100E746F00EC2D
:102C000019F040EF16F05E0E736F100E746F00EC4B
:102C100019F040EF16F07FC081F080C082F0000113
:102C20008251000AD8B41FEF16F0030AD8B42AEF75
:102C300016F0040AD8B439EF16F040EF16F08151BF
:102C4000C00AD8B4DBEF15F0100AD8B4E3EF15F0E2
:102C500040EF16F08151800AD8B4F3EF15F0080A5E
:102C6000D8B4FBEF15F0010AD8B403EF16F040EF2B
:102C700016F08151660AD8B4EBEF15F040EF16F06C
:102C800012000001AAA147EF16F049EF16F053EF2A
:102C900016F015C00CF016C00DF013C00EF014C0E5
:102CA0000FF04BEC18F018BE58EF16F05AEF16F074
:102CB00060EF16F017C01CF018C01DF064EF16F09E
:102CC000000E1D6E000E1C6E000E1B6E000E1A6EA6
:102CD00076EF16F0000E046E200E036E13C005F0A2
:102CE00014C006F0FCEC16F01A4A1B2A1C501A5CA1
:102CF0001B50800A196E1D50800A1958D8A083EF06
:102D000016F085EF16F06AEF16F00001AAB18BEF0E
:102D100016F08DEF16F097EF16F015C00CF016C0F8
:102D20000DF013C00EF014C00FF04BEC18F015C0EE
:102D300001F016C002F0ABEC18F01C500124136E29
:102D40001D500220146E1200000E066E02BEADEF82
:102D500016F0ABEF16F0B3EF16F0016C021ED8B010
:102D6000022A010E066E04BEBAEF16F0B8EF16F096
:102D7000BEEF16F0036C041ED8B0042A03500410F2
:102D8000D8B4C5EF16F0C7EF16F0EBEF16F0010E52
:102D9000056ECFEF16F0D89003360436052A04AE40
:102DA000D4EF16F0D6EF16F0CBEF16F00350015C1F
:102DB00004500258D8A0DFEF16F0E1EF16F0E5EF6F
:102DC00016F00350015E0450025AD89004320332C8
:102DD000052ED6EF16F00650D8B4F1EF16F0F3EF4B
:102DE00016F0F7EF16F0016C021ED8B0022A01C0EF
:102DF00001F002C002F0120005500610D8B403EF33
:102E000017F005EF17F00EEF17F005500610D8A4D5
:102E10000CEF17F00EEF17F013EF17F0035081ECE3
:102E200019F046EF17F020EE04F00550D9260650B1
:102E3000DA22DE50DE10D8B420EF17F022EF17F0C0
:102E40003DEF17F020EE04F00550D9260650DA22A7
:102E500010EE02F00550E1260650E222DE50E65C5C
:102E6000E650800A0B6EDE50800A0B58D8B03BEF5C
:102E700017F03DEF17F046EF17F020EE02F0055087
:102E8000D9260650DA22DE2A000EDD221200076E55
:102E90000750056E066AD89005360636D890053676
:102EA0000636D8900536063605C00CF006C00DF083
:102EB000000E0DBEFF0E0E6E0F6E01C005F0050E6A
:102EC000066ED8900532062E61EF17F005500C24DF
:102ED0000C6E000E0D200D6E000E0E200E6E000EFC
:102EE0000F200F6E0CC008F00DC009F00EC00AF0E4
:102EF0000FC00BF008C001F009C002F00AC003F0D7
:102F00000BC004F01200000E3D01EC6F000EED6FDF
:102F1000000EEE6F000EEF6F000EF06F000EF16FFF
:102F2000B00EF26F800EF36F000EF46F400EF56F6F
:102F3000030EF66F000EF76F000EF86F000EF96FBC
:102F4000000EFA6F000E016E000E026E8BEC19F08F
:102F5000000E016E000E026E86EC19F0000E016E7E
:102F6000000E026E90EC19F0000E5F6E12005BC056
:102F700071F05CC072F0000E0001A56F000EA46F2E
:102F8000D5EF17F059C045F05AC046F0710E476EA4
:102F9000000E486E5DC049F05EC04AF05FEC08F07C
:102FA00045500001A4274650A5236000C7F1F6FF55
:102FB0006000CBF1F7FF0800F5500009D8A4E3EF5B
:102FC00017F0E5EF17F0C2EF17F0A4C059F0A5C055
:102FD0005AF01200000EBA6E000EBB6E000EBC6EF0
:102FE000FE0EC26EEF0EC36EBF0EC46E3F0E3A01F0
:102FF000606FE70E506FFE0E406F000E816F000E87
:10300000516F000E416F000E616F000E426F000E97
:10301000526F000E626F4369536963694469546972
:103020006469080E846F0B0EED6F330E0C6F130E78
:10303000166F170EE76F12009F0E096EFF0E0A6ED5
:1030400007C00BF008C00CF009500B260A500C22E8
:103050000C500AE11A0E0B5CD8A031EF18F034EFD7
:1030600018F0010E35EF18F0000E0D6E0E6A0D50BF
:103070000E10D8B43EEF18F040EF18F046EF18F0FD
:103080005F0E0714076E086A4AEF18F007C007F0D2
:1030900008C008F01200000E126E000E116E5CEFF8
:1030A00018F010C003F0046A0EC005F00FC006F05F
:1030B000FCEC16F0114A122A11500C24D96E125051
:1030C0000D20DA6EDF50106E1050D8A46AEF18F0A1
:1030D0006CEF18F051EF18F0120014BE7AEF18F0F0
:1030E000145006E11304D8B078EF18F07AEF18F016
:1030F00088EF18F013C015F014C016F0151E161E38
:10310000154A162A15C013F016C014F08CEF18F0EB
:1031100013C013F014C014F012009F0E036EFF0EC4
:10312000046E200E0110056E000E0210066E035094
:1031300005260450062206500AE11A0E055CD8A0A6
:10314000A4EF18F0A7EF18F0010EA8EF18F0000E8A
:10315000016E026A120001C003F002C004F0B3EF76
:1031600018F0014A022A600007F0D9FF60000BF056
:10317000DAFFDF50D8A4BFEF18F0C1EF18F0B1EFBD
:1031800018F00350015C016E04500258026E1200E8
:103190009F0E036EFF0E046E01C005F002C006F024
:1031A000035005260450062206500AE11A0E055C5B
:1031B000D8A0DDEF18F0E0EF18F0010EE1EF18F005
:1031C000000E016E026A1200BF0E036EFF0E046E47
:1031D00001C005F002C006F0035005260450062287
:1031E00006500AE11A0E055CD8A0F9EF18F0FCEFC2
:1031F00018F0010EFDEF18F0000E016E026A1200C9
:10320000750E00017D6F000E7E6F000E596E000E70
:103210005A6E73C05BF074C05CF07D0E5D6E000E84
:103220005E6EB7EC17F0120000EEA4F02A0EEE6A04
:10323000E806FDE15F6A080ED56E000ED66E000E40
:10324000D76E000EF86E00012BEF11F0000E390161
:10325000C06F000EC16F000EC26F000EC36F000E74
:10326000C46F000EC56F000EC66F000EC76F120050
:10327000390195AD3EEF19F040EF19F049EF19F023
:10328000A5AD45EF19F047EF19F049EF19F04AECF9
:1032900019F0110002D858EF19F005000001FA6E7C
:1032A000AC51FD6EAD51FE6EF850FF6EFA5012003B
:1032B0003901A59D1200016E3901A3A962EF19F031
:1032C00064EF19F05CEF19F0600007F0EAFD1200FE
:1032D0009AEC19F026EC19F0EAEC17F075EC19F0FD
:1032E00083EC17F06AEC15F01200600E3901D96F0B
:1032F000000EDB6F000EDD6F080EDF6F000EDE6F5D
:103300001200026E02505BEC19F0120001C0D0F006
:1033100002C0D1F0120001C0D2F002C0D3F01200FE
:1033200001C0CEF002C0CFF0120001C0ACF002C06C
:0A333000ADF01200D29A1200120054
:047FFC0014EF19F075
:020000040020DA
:10000000FF0FFF0FFF0FFF0FFF0FFF0FFF0FFF0F80
:020000040030CA
:0A0000008CFFF7FF9FFFFFFFFFFFDB
:00000001FF
